:107C000001C0C2C0CDB7DEB7C058D109DEBFCDBFFD
:107C1000112484B7882349F0982F9A70923029F064
:107C200081FF02C097EF94BF10D185E0809381005F
:107C300082E08093C00088E18093C10086E0809359
:107C4000C20080E18093C4008FE0EAD000E010E43D
:107C5000B801705441E050E00038EFEF1E0710F417
:107C600041E850E0DE01119630E020E0CD0102C095
:107C7000E491ED93F901E00FF11F2F5F3F4F2417BF
:107C80003507B1F700581F4F40E88ED001158AE440
:107C90001807F1F6259A86E020E33CEF91E0309357
:107CA00085002093840096BBB09BFECF1D9AA895BB
:107CB0008150A9F710E000E0A7D0813489F4A4D066
:107CC000F82EB4D0F2E882E0FF1621F081E8F81235
:107CD00005C086E092D080E190D0EECF83E0FACF6D
:107CE000823419F484E1AAD0F6CF853411F485E00A
:107CF000FACF853549F488D0082F10E085D0182BAD
:107D0000000F111F93D0E7CF863521F484E096D081
:107D100080E0E0CF8436C9F477D076D0D82E74D006
:107D2000C82EE12CFF24F3946FD0F70181937F01DB
:107D3000DE12FACF7BD0F5E4CF1201C0FFCF4D2D7C
:107D4000B80180E091E030D0C6CF843771F45CD0C8
:107D50005BD0D82E59D06AD07801F70185917F0188
:107D60004CD0DA94D110F9CFB6CF853739F45ED044
:107D70008EE143D085E941D08FE0ACCF813509F069
:107D8000C1CF88E04DD0BECFFC010A0167BFE895A6
:107D9000112407B600FCFDCF667029F0452B19F4BD
:107DA00081E187BFE8950895DF92EF92FF920F93EC
:107DB0001F93CF93DF93EC018B01D42E50E040E072
:107DC00063E0C801E1DF7801D00E48818981582F36
:107DD00061E0C701D9DF82E0E80EF11C2296DE10D7
:107DE000F4CF50E040E065E0C801DF91CF911F91F2
:107DF0000F91FF90EF90DF90C7CF9091C00095FF5B
:107E0000FCCF8093C60008958091C00087FFFCCF0F
:107E10008091C00084FD01C0A8958091C60008959E
:107E2000E0E6F0E098E1908380830895EDDF803212
:107E300019F088E0F5DFFFCF84E1DFCFCF93C82FC3
:107E4000E3DFC150E9F7CF91F1CF282E80E0E8DFE2
:067E5000E0E0FF270994A9
:027FFE00020679
:0400000300007C007D
:00000001FF
