:020000023000CC
:10FC000001C0F1C01F92CDB7DEB7112484B788239D
:10FC100049F0982F9A70923029F081FF02C097EF37
:10FC200094BF19D185E08093810082E08093C00069
:10FC300088E18093C10086E08093C20080E18093D8
:10FC4000C4008EE0F3D0279A26E080E39CEF31E0F9
:10FC5000909385008093840036BBB09BFECF1F9AA3
:10FC6000A8952150A9F7812C912CD4D0813479F416
:10FC7000D1D08983E1D08981823811F482E005C036
:10FC8000813811F486E001C083E0BDD0A9C0823480
:10FC900011F484E103C0853419F485E0D5D0A0C007
:10FCA000853579F4B7D0882EB5D0912C982A8BB7AA
:10FCB00097FE02C0816001C08E7F8BBF880C991CAB
:10FCC0008EC0863581F4A6D08D3449F4A3D01BB7FD
:10FCD000A1D0880F1170812B8BBF81E001C083E020
:10FCE000B3D080E0D2CF843609F048C093D0E82E5C
:10FCF000F12CFE2CEE248ED0E82A8CD0B82E870171
:10FD0000C12C32E0D32E86D0F60181936F010150D1
:10FD10001109C9F791D0F5E4BF1212C0E80CF91C23
:10FD20008401C12C92E0D92E0E151F0509F458C08C
:10FD3000F60161916F01C8019CD00F5F1F4FF4CF96
:10FD400040E050E063E0C4014ED000E010E0F80174
:10FD5000FE5F40813196808150E0582B61E0C80100
:10FD6000880D991D40D00E5F1F4FE016F10679F700
:10FD700040E050E065E0C40136D032C0843711F570
:10FD800049D0082F10E0102F002744D0082B42D074
:10FD9000898352D089817401853461F4C70161D0AF
:10FDA00032D001501109FFEFEF1AFF0A01151105BA
:10FDB000A9F716C0F70187917F0125D001501109DD
:10FDC000C9F70EC0853739F437D08EE11CD088E9E9
:10FDD0001AD081E05ACF813511F488E027D02CD099
:10FDE00080E111D042CFFC010A0167BFE8951124E0
:10FDF00007B600FCFDCF667029F0452B19F481E1B0
:10FE000087BFE89508959091C00095FFFCCF80933F
:10FE1000C60008958091C00087FFFCCF8091C0008C
:10FE200084FD01C0A8958091C6000895E0E6F0E049
:10FE300098E1908380830895EDDF803219F088E0A7
:10FE4000F5DFFFCF84E1DFCFCF93C82FE3DFC150D1
:10FE5000E9F7CF91F1CF282E80E0E8DFE0E0FF273F
:10FE60000994F999FECF92BD81BDF89A992780B582
:10FE70000895262FF999FECF1FBA92BD81BD20BDEE
:0EFE80000FB6F894FA9AF99A0FBE01960895FB
:02FFFE000206F9
:040000033000FC00CD
:00000001FF
