:101D000001C0DBC01F92CDB7DEB7112484B7882392
:101D100049F0982F9A70923029F081FF02C097EF16
:101D200094BF0AD18EE0F5D0D29A92E8E92E9EE0D7
:101D3000F92E8FE0F822EF2DE06CBE2E812C912C35
:101D4000D4D0813479F4D1D08983E7D089818238A5
:101D500011F482E005C0813811F486E001C083E00F
:101D6000B5D0A8C0823411F484E103C0853419F4DD
:101D700085E0DBD09FC0853541F4B7D0882EB5D043
:101D8000912C982A880C991C94C0863521F484E003
:101D9000CCD080E0E5CF843609F055C0A6D0A5D0E0
:101DA000A82EA3D0D82E00E610E0F0E6AF0E9DD00E
:101DB000F80181938F01AE12FACFAFD08114910454
:101DC00001F5209160002093E400909161009093D0
:101DD000E500809168008093E6008091690080931F
:101DE000E7009F7030E0392B245031093F70209379
:101DF0006800832F806C80936900E0926000B0924D
:101E00006100F5E4DF1201C0FFCF40E050E063E085
:101E1000C40153D0640100E610E0F80140810E5F78
:101E20001F4F3196808150E0582B61E0C60145D0AC
:101E3000F2E0CF0ED11CA012F0CF40E050E065E000
:101E4000C4013BD037C0843739F54FD04ED0D82E9F
:101E50004CD063D08401D80C0115110519F4809180
:101E6000E40014C00130110519F48091E5000EC0A2
:101E70000830110519F48091E60008C009301105F9
:101E800019F48091E70002C0F80184910F5F1F4FA1
:101E90001DD0D012E1CF0EC0853739F43ED08EE18F
:101EA00015D083E913D08CE05BCF813511F488E045
:101EB00030D033D080E10AD043CFFC010A0167BFA4
:101EC000E895112407B600FCFDCF08952AE030E024
:101ED0008095089410F4DA9802C0DA9A000015D0C0
:101EE00014D086952A95B1F70895A89529E030E099
:101EF000CB99FECF0AD009D008D08894CB9908940A
:101F00002A9511F08795F7CF08959EE09A95F1F7FD
:101F1000089598E191BD81BD0895E7DF803219F001
:101F200088E0F7DFFFCF84E1D1CFCF93C82FDDDF8B
:101F3000C150E9F7CF91F1CF282E80E0EADFE4E04D
:041F4000FF270994DA
:021FFE000206D9
:0400000300001D00DC
:00000001FF
