:10FC000001C0DEC01F92CDB7DEB7112484B78823B0
:10FC100049F0982F9A70923029F081FF02C097EF37
:10FC200094BF06D185E08093810082E08093C0007C
:10FC300088E18093C10086E08093C20080E18093D8
:10FC4000C4008EE0E0D0209A26E080E39CEF31E013
:10FC5000909385008093840036BBB09BFECF189AAA
:10FC6000A8952150A9F7812C912CC1D0813479F429
:10FC7000BED08983CED08981823811F482E005C05C
:10FC8000813811F486E001C083E0AAD096C08234A6
:10FC900011F484E103C0853419F485E0C2D08DC02D
:10FCA000853541F4A4D0882EA2D0912C982A880CB6
:10FCB000991C82C0863521F484E0B3D080E0E5CF82
:10FCC000843609F048C093D0E82EF12CFE2CEE24A7
:10FCD0008ED0E82A8CD0B82E8701C12CDD24D39495
:10FCE00086D0F60181936F0101501109C9F791D0B7
:10FCF000F5E4BF1212C0E80CF91C8401C12CDD240C
:10FD0000D3940E151F0509F458C0F60161916F01D7
:10FD1000C8019CD00F5F1F4FF4CF40E050E063E07C
:10FD2000C4014ED000E010E0F801F3954081319617
:10FD3000808150E0582B61E0C801880D991D40D0AA
:10FD40000E5F1F4FE016F10679F740E050E065E0E6
:10FD5000C40136D032C0843711F549D0082F10E0E5
:10FD6000102F002744D0082B42D0898352D089819C
:10FD70007401853461F4C70161D032D0015011099A
:10FD8000FFEFEF1AFF0A01151105A9F716C0F701D9
:10FD900085917F0125D001501109C9F70EC0853723
:10FDA00039F437D08EE11CD086E91AD08AE06DCFC5
:10FDB000813511F488E027D02CD080E111D055CFC7
:10FDC000FC010A0167BFE895112407B600FCFDCFCE
:10FDD000667029F0452B19F481E187BFE8950895F5
:10FDE0009091C00095FFFCCF8093C600089580914C
:10FDF000C00087FFFCCF8091C00084FD01C0A895A2
:10FE00008091C6000895E0E6F0E098E19083808359
:10FE10000895EDDF803219F088E0F5DFFFCF84E14F
:10FE2000DFCFCF93C82FE3DFC150E9F7CF91F1CFF8
:10FE3000282E80E0E8DFE0E0FF270994F999FECF63
:10FE400092BD81BDF89A992780B50895262FF9991A
:10FE5000FECF1FBA92BD81BD20BD0FB6F894FA9AAD
:08FE6000F99A0FBE0196089506
:02FFFE000206F9
:040000030000FC00FD
:00000001FF
