:020000021000EC
:10FC000001C0F1C01F92CDB7DEB7112484B788239D
:10FC100049F0982F9A70923029F081FF02C097EF37
:10FC200094BF19D185E08093810082E08093C00069
:10FC300088E18093C10086E08093C20080E18093D8
:10FC4000C4008EE0F3D0279A26E080E39CEF31E0F9
:10FC5000909385008093840036BBB09BFECF1F9AA3
:10FC6000A8952150A9F7812C912CD4D08134D1F4BE
:10FC7000D1D08983E1D08981823811F482E010C02B
:10FC8000813869F486E00CC0843709F482C0853776
:10FC900009F0A1C0D1D08EE1B6D087E9B4D083E01D
:10FCA000B2D09EC0823411F484E103C0853419F4CB
:10FCB00085E0CAD095C0853579F4ACD0882EAAD01D
:10FCC000912C982A8BB797FE02C0816001C08E7F6D
:10FCD0008BBF880C991C83C0863581F49BD08D34F2
:10FCE00049F498D01BB796D0880F1170812B8BBF29
:10FCF00081E001C083E0A8D080E0D2CF843609F053
:10FD0000C3CF88D0E82EF12CFE2CEE2483D0E82A35
:10FD100081D0B82E8701C12C32E0D32E7BD0F601E2
:10FD200081936F0101501109C9F786D0F5E4BF1224
:10FD300012C0E80CF91C8401C12C92E0D92E0E15DA
:10FD40001F0509F44DC0F60161916F01C80191D002
:10FD50000F5F1F4FF4CF40E050E063E0C40143D099
:10FD600000E010E0F801FE5F40813196808150E0B4
:10FD7000582B61E0C801880D991D35D00E5F1F4FCB
:10FD8000E016F10679F740E050E065E0C4012BD0C1
:10FD900027C040D0082F10E0102F00273BD0082BA1
:10FDA00039D0898349D089817401853461F4C701D0
:10FDB00058D029D001501109FFEFEF1AFF0A0115A1
:10FDC0001105A9F70DC0F70187917F011CD00150E3
:10FDD0001109C9F705C0813511F488E027D02CD06E
:10FDE00080E111D042CFFC010A0167BFE8951124E0
:10FDF00007B600FCFDCF667029F0452B19F481E1B0
:10FE000087BFE89508959091C00095FFFCCF80933F
:10FE1000C60008958091C00087FFFCCF8091C0008C
:10FE200084FD01C0A8958091C6000895E0E6F0E049
:10FE300098E1908380830895EDDF803219F088E0A7
:10FE4000F5DFFFCF84E1DFCFCF93C82FE3DFC150D1
:10FE5000E9F7CF91F1CF282E80E0E8DFE0E0FF273F
:10FE60000994F999FECF92BD81BDF89A992780B582
:10FE70000895262FF999FECF1FBA92BD81BD20BDEE
:0EFE80000FB6F894FA9AF99A0FBE01960895FB
:02FFFE000206F9
:040000031000FC00ED
:00000001FF
